{
    "contractName": "CagnotteCollective",
    "abi": [
        {
            "inputs": [],
            "stateMutability": "nonpayable",
            "type": "constructor"
        },
        {
            "anonymous": false,
            "inputs": [
                {
                    "indexed": true,
                    "internalType": "address",
                    "name": "donneur",
                    "type": "address"
                },
                {
                    "indexed": false,
                    "internalType": "uint256",
                    "name": "montant",
                    "type": "uint256"
                }
            ],
            "name": "Depot",
            "type": "event"
        },
        {
            "anonymous": false,
            "inputs": [
                {
                    "indexed": true,
                    "internalType": "address",
                    "name": "organisateur",
                    "type": "address"
                },
                {
                    "indexed": false,
                    "internalType": "uint256",
                    "name": "montant",
                    "type": "uint256"
                }
            ],
            "name": "Retrait",
            "type": "event"
        },
        {
            "inputs": [],
            "name": "deposer",
            "outputs": [],
            "stateMutability": "payable",
            "type": "function"
        },
        {
            "inputs": [],
            "name": "organisateur",
            "outputs": [
                {
                    "internalType": "address",
                    "name": "",
                    "type": "address"
                }
            ],
            "stateMutability": "view",
            "type": "function"
        },
        {
            "inputs": [],
            "name": "retirer",
            "outputs": [],
            "stateMutability": "nonpayable",
            "type": "function"
        },
        {
            "inputs": [],
            "name": "solde",
            "outputs": [
                {
                    "internalType": "uint256",
                    "name": "",
                    "type": "uint256"
                }
            ],
            "stateMutability": "view",
            "type": "function"
        }
    ],
    "bytecode": "608080604052346026575f80546001600160a01b0319163317905561030b908161002b8239f35b5f80fdfe6080806040526004361015610012575f80fd5b5f3560e01c9081632c9ec6031461011e5750806342dc400f1461008e578063444c8dd21461007357638febe4e114610048575f80fd5b3461006f575f36600319011261006f575f546040516001600160a01b039091168152602090f35b5f80fd5b3461006f575f36600319011261006f57602047604051908152f35b5f36600319011261006f5734156100cd576040513481527f92d7e50c6d258fcfe05195031b3dda612a749118f6e727e3ac175e8301fd774960203392a2005b60405162461bcd60e51b815260206004820152602360248201527f4c65206d6f6e74616e7420646f6974206574726520737570657269657572206160448201526210181760e91b6064820152608490fd5b3461006f575f36600319011261006f575f546001600160a01b0316903382900361027f575047908115610230575f80808481945af13d1561022b573d67ffffffffffffffff81116102175760405190601f8101601f19908116603f0116820167ffffffffffffffff8111838210176102175760405281525f60203d92013e5b156101dc575f546040519182526001600160a01b0316907f518272ea8ccd0917e11da6d532ac3dfcdaae12fda3c7ed872eaf4dd1b1756bd090602090a2005b60405162461bcd60e51b815260206004820152601360248201527222b1b432b190323a903a3930b739b332b93a1760691b6044820152606490fd5b634e487b7160e01b5f52604160045260245ffd5b61019d565b60405162461bcd60e51b815260206004820152602160248201527f417563756e20666f6e647320646973706f6e69626c65206120726574697265726044820152601760f91b6064820152608490fd5b62461bcd60e51b815260206004820152602b60248201527f5365756c206c276f7267616e697361746575722070657574207265746972657260448201526a103632b9903337b732399760a91b6064820152608490fdfea26469706673582212209040769dcd8582bd50e2c4cc074e694febb17bed826aee180a09b56c7df7024964736f6c634300081c0033",
    "sourcePath": "c:/Users/dimas/OneDrive/Bureau/blockchainProjects/contracts/MyToken.sol",
    "compiler": {
        "name": "solc",
        "version": "0.8.28+commit.7893614a"
    },
    "functionHashes": {
        "deposer()": "42dc400f",
        "organisateur()": "8febe4e1",
        "retirer()": "2c9ec603",
        "solde()": "444c8dd2"
    },
    "gasEstimates": {
        "creation": {
            "codeDepositCost": "155800",
            "executionCost": "24442",
            "totalCost": "180242"
        },
        "external": {
            "deposer()": "1566",
            "organisateur()": "2342",
            "retirer()": "infinite",
            "solde()": "202"
        }
    }
}